:0300000002000EED
:10000B00020149787FE4F6D8FD7581120200550292
:10001B00009AE493A3F8E493A34003F68001F2085B
:10002B00DFF48029E493A3F85407240CC8C333C42A
:10003B00540F4420C8834004F456800146F6DFE495
:10004B00800B010204081020408090019DE47E018A
:10005B009360BCA3FF543F30E509541FFEE493A308
:10006B0060010ECF54C025E060A840B8E493A3FA1A
:10007B00E493A3F8E493A3C8C582C8CAC583CAF0A6
:10008B00A3C8C582C8CAC583CADFE9DEE780BE1232
:10009B00018D7D017C00E4FFFE1201667D027C0078
:1000AB007F017E001201667D037C007F027E0012C1
:1000BB0001667D047C007F037E001201667D057C5A
:1000CB00007F047E001201667D067C007F057E00AA
:1000DB001201667D077C007F067E001201667D1093
:1000EB007C007F077E001201661200F980FBAF09CE
:1000FB00AE0812017A740A2509F8E6F590D2A1C26E
:10010B00A10509E50970020508D39407E5089400D9
:10011B004005E4F508F5097F0A7E00020129E4FD9C
:10012B00FCC3ED9FEC9E5015E4FBFA0BBB00010AE0
:10013B00EB64324A70F50DBD00010C80E422C0E087
:10014B00C0D0758C3C758AB0E512C3940A40057516
:10015B00120080020512D0D0D0E03274AC2DF582A3
:10016B0074013CF583E493FD740A2FF8A605227401
:10017B0001A807088002C333D8FCF4F590D2A0C2C3
:10018B00A022758901758C3C758AB0D28CD2A9D20C
:10019B00AF2202080000080A000000000000000067
:1001AB00003F065B4F666D7D077F6F777C395E790D
:0201BB007100D1
:00000001FF
